{
  "_format": "hh-sol-artifact-1",
  "contractName": "Marketplace",
  "sourceName": "src/backend/contracts/NftMarketplace.sol",
  "abi": [
    {
      "inputs": [
        {
          "internalType": "uint256",
          "name": "_feepercent",
          "type": "uint256"
        }
      ],
      "stateMutability": "nonpayable",
      "type": "constructor"
    },
    {
      "anonymous": false,
      "inputs": [
        {
          "indexed": false,
          "internalType": "uint256",
          "name": "itemid",
          "type": "uint256"
        },
        {
          "indexed": false,
          "internalType": "uint256",
          "name": "tokenid",
          "type": "uint256"
        },
        {
          "indexed": true,
          "internalType": "address",
          "name": "nft",
          "type": "address"
        },
        {
          "indexed": true,
          "internalType": "address",
          "name": "seller",
          "type": "address"
        },
        {
          "indexed": false,
          "internalType": "uint256",
          "name": "price",
          "type": "uint256"
        },
        {
          "indexed": true,
          "internalType": "address",
          "name": "buyer",
          "type": "address"
        }
      ],
      "name": "bought",
      "type": "event"
    },
    {
      "anonymous": false,
      "inputs": [
        {
          "indexed": false,
          "internalType": "uint256",
          "name": "itemid",
          "type": "uint256"
        },
        {
          "indexed": false,
          "internalType": "uint256",
          "name": "tokenid",
          "type": "uint256"
        },
        {
          "indexed": true,
          "internalType": "address",
          "name": "nft",
          "type": "address"
        },
        {
          "indexed": true,
          "internalType": "address",
          "name": "seller",
          "type": "address"
        },
        {
          "indexed": false,
          "internalType": "uint256",
          "name": "price",
          "type": "uint256"
        }
      ],
      "name": "offered",
      "type": "event"
    },
    {
      "inputs": [],
      "name": "feeAccount",
      "outputs": [
        {
          "internalType": "address payable",
          "name": "",
          "type": "address"
        }
      ],
      "stateMutability": "view",
      "type": "function"
    },
    {
      "inputs": [],
      "name": "feePercent",
      "outputs": [
        {
          "internalType": "uint256",
          "name": "",
          "type": "uint256"
        }
      ],
      "stateMutability": "view",
      "type": "function"
    },
    {
      "inputs": [
        {
          "internalType": "uint256",
          "name": "_itemId",
          "type": "uint256"
        }
      ],
      "name": "getTotalPrice",
      "outputs": [
        {
          "internalType": "uint256",
          "name": "",
          "type": "uint256"
        }
      ],
      "stateMutability": "view",
      "type": "function"
    },
    {
      "inputs": [],
      "name": "getcount",
      "outputs": [
        {
          "internalType": "uint256",
          "name": "",
          "type": "uint256"
        }
      ],
      "stateMutability": "view",
      "type": "function"
    },
    {
      "inputs": [],
      "name": "itemCount",
      "outputs": [
        {
          "internalType": "uint256",
          "name": "",
          "type": "uint256"
        }
      ],
      "stateMutability": "view",
      "type": "function"
    },
    {
      "inputs": [
        {
          "internalType": "uint256",
          "name": "",
          "type": "uint256"
        }
      ],
      "name": "items",
      "outputs": [
        {
          "internalType": "uint256",
          "name": "itemid",
          "type": "uint256"
        },
        {
          "internalType": "uint256",
          "name": "tokenid",
          "type": "uint256"
        },
        {
          "internalType": "contract IERC721",
          "name": "nft",
          "type": "address"
        },
        {
          "internalType": "address payable",
          "name": "seller",
          "type": "address"
        },
        {
          "internalType": "uint256",
          "name": "price",
          "type": "uint256"
        },
        {
          "internalType": "bool",
          "name": "sold",
          "type": "bool"
        }
      ],
      "stateMutability": "view",
      "type": "function"
    },
    {
      "inputs": [
        {
          "internalType": "uint256",
          "name": "tokenid",
          "type": "uint256"
        },
        {
          "internalType": "contract IERC721",
          "name": "nft",
          "type": "address"
        },
        {
          "internalType": "uint256",
          "name": "price",
          "type": "uint256"
        }
      ],
      "name": "listitem",
      "outputs": [],
      "stateMutability": "nonpayable",
      "type": "function"
    },
    {
      "inputs": [
        {
          "internalType": "uint256",
          "name": "itemid",
          "type": "uint256"
        }
      ],
      "name": "purchaseitem",
      "outputs": [],
      "stateMutability": "payable",
      "type": "function"
    }
  ],
  "bytecode": "0x608060405234801561001057600080fd5b50604051610fc5380380610fc58339818101604052810190610032919061009d565b60016000819055508060028190555033600160006101000a81548173ffffffffffffffffffffffffffffffffffffffff021916908373ffffffffffffffffffffffffffffffffffffffff160217905550506100e7565b600081519050610097816100d0565b92915050565b6000602082840312156100af57600080fd5b60006100bd84828501610088565b91505092915050565b6000819050919050565b6100d9816100c6565b81146100e457600080fd5b50565b610ecf806100f66000396000f3fe60806040526004361061007b5760003560e01c80637fd6f15c1161004e5780637fd6f15c1461012a578063bfb231d214610155578063c251739f14610197578063ca7dd375146101b35761007b565b8063146af82b1461008057806314cd17f6146100ab57806365e17c9d146100d45780636bfb0d01146100ff575b600080fd5b34801561008c57600080fd5b506100956101f0565b6040516100a29190610ae0565b60405180910390f35b3480156100b757600080fd5b506100d260048036038101906100cd919061092b565b6101fa565b005b3480156100e057600080fd5b506100e9610443565b6040516100f69190610a2e565b60405180910390f35b34801561010b57600080fd5b50610114610469565b6040516101219190610ae0565b60405180910390f35b34801561013657600080fd5b5061013f61046f565b60405161014c9190610ae0565b60405180910390f35b34801561016157600080fd5b5061017c60048036038101906101779190610902565b610475565b60405161018e96959493929190610afb565b60405180910390f35b6101b160048036038101906101ac9190610902565b6104fe565b005b3480156101bf57600080fd5b506101da60048036038101906101d59190610902565b610839565b6040516101e79190610ae0565b60405180910390f35b6000600354905090565b61020261087e565b6003600081548092919061021590610d49565b91905055508173ffffffffffffffffffffffffffffffffffffffff166323b872dd3330866040518463ffffffff1660e01b815260040161025793929190610a49565b600060405180830381600087803b15801561027157600080fd5b505af1158015610285573d6000803e3d6000fd5b505050506040518060c0016040528060035481526020018481526020018373ffffffffffffffffffffffffffffffffffffffff1681526020013373ffffffffffffffffffffffffffffffffffffffff16815260200182815260200160001515815250600460006003548152602001908152602001600020600082015181600001556020820151816001015560408201518160020160006101000a81548173ffffffffffffffffffffffffffffffffffffffff021916908373ffffffffffffffffffffffffffffffffffffffff16021790555060608201518160030160006101000a81548173ffffffffffffffffffffffffffffffffffffffff021916908373ffffffffffffffffffffffffffffffffffffffff1602179055506080820151816004015560a08201518160050160006101000a81548160ff0219169083151502179055509050503373ffffffffffffffffffffffffffffffffffffffff168273ffffffffffffffffffffffffffffffffffffffff167f066cc77432996bb6a72e970999850f73ad010154ba9dd8955e798e4714491edc600354868560405161042e93929190610b5c565b60405180910390a361043e6108ce565b505050565b600160009054906101000a900473ffffffffffffffffffffffffffffffffffffffff1681565b60035481565b60025481565b60046020528060005260406000206000915090508060000154908060010154908060020160009054906101000a900473ffffffffffffffffffffffffffffffffffffffff16908060030160009054906101000a900473ffffffffffffffffffffffffffffffffffffffff16908060040154908060050160009054906101000a900460ff16905086565b61050661087e565b600061051182610839565b905060006004600084815260200190815260200160002090508134101561056d576040517f08c379a000000000000000000000000000000000000000000000000000000000815260040161056490610a80565b60405180910390fd5b8060050160009054906101000a900460ff16156105bf576040517f08c379a00000000000000000000000000000000000000000000000000000000081526004016105b690610aa0565b60405180910390fd5b8060030160009054906101000a900473ffffffffffffffffffffffffffffffffffffffff1673ffffffffffffffffffffffffffffffffffffffff166108fc82600401549081150290604051600060405180830381858888f1935050505015801561062d573d6000803e3d6000fd5b50600160009054906101000a900473ffffffffffffffffffffffffffffffffffffffff1673ffffffffffffffffffffffffffffffffffffffff166108fc82600401548461067a9190610c85565b9081150290604051600060405180830381858888f193505050501580156106a5573d6000803e3d6000fd5b508060020160009054906101000a900473ffffffffffffffffffffffffffffffffffffffff1673ffffffffffffffffffffffffffffffffffffffff166323b872dd303384600101546040518463ffffffff1660e01b815260040161070b93929190610a49565b600060405180830381600087803b15801561072557600080fd5b505af1158015610739573d6000803e3d6000fd5b5050505060018160050160006101000a81548160ff0219169083151502179055503373ffffffffffffffffffffffffffffffffffffffff168160030160009054906101000a900473ffffffffffffffffffffffffffffffffffffffff1673ffffffffffffffffffffffffffffffffffffffff168260020160009054906101000a900473ffffffffffffffffffffffffffffffffffffffff1673ffffffffffffffffffffffffffffffffffffffff167fbac38e812856c668e1e2ca2601d97a3b322eeced910216a5f2263c8a864752cf6003548560010154866004015460405161082493929190610b5c565b60405180910390a450506108366108ce565b50565b60006064600254606461084c9190610ba4565b600460008581526020019081526020016000206004015461086d9190610c2b565b6108779190610bfa565b9050919050565b600260005414156108c4576040517f08c379a00000000000000000000000000000000000000000000000000000000081526004016108bb90610ac0565b60405180910390fd5b6002600081905550565b6001600081905550565b6000813590506108e781610e6b565b92915050565b6000813590506108fc81610e82565b92915050565b60006020828403121561091457600080fd5b6000610922848285016108ed565b91505092915050565b60008060006060848603121561094057600080fd5b600061094e868287016108ed565b935050602061095f868287016108d8565b9250506040610970868287016108ed565b9150509250925092565b61098381610ccb565b82525050565b61099281610cb9565b82525050565b6109a181610cdd565b82525050565b6109b081610d25565b82525050565b60006109c3601d83610b93565b91506109ce82610df0565b602082019050919050565b60006109e6601383610b93565b91506109f182610e19565b602082019050919050565b6000610a09601f83610b93565b9150610a1482610e42565b602082019050919050565b610a2881610d1b565b82525050565b6000602082019050610a43600083018461097a565b92915050565b6000606082019050610a5e6000830186610989565b610a6b6020830185610989565b610a786040830184610a1f565b949350505050565b60006020820190508181036000830152610a99816109b6565b9050919050565b60006020820190508181036000830152610ab9816109d9565b9050919050565b60006020820190508181036000830152610ad9816109fc565b9050919050565b6000602082019050610af56000830184610a1f565b92915050565b600060c082019050610b106000830189610a1f565b610b1d6020830188610a1f565b610b2a60408301876109a7565b610b37606083018661097a565b610b446080830185610a1f565b610b5160a0830184610998565b979650505050505050565b6000606082019050610b716000830186610a1f565b610b7e6020830185610a1f565b610b8b6040830184610a1f565b949350505050565b600082825260208201905092915050565b6000610baf82610d1b565b9150610bba83610d1b565b9250827fffffffffffffffffffffffffffffffffffffffffffffffffffffffffffffffff03821115610bef57610bee610d92565b5b828201905092915050565b6000610c0582610d1b565b9150610c1083610d1b565b925082610c2057610c1f610dc1565b5b828204905092915050565b6000610c3682610d1b565b9150610c4183610d1b565b9250817fffffffffffffffffffffffffffffffffffffffffffffffffffffffffffffffff0483118215151615610c7a57610c79610d92565b5b828202905092915050565b6000610c9082610d1b565b9150610c9b83610d1b565b925082821015610cae57610cad610d92565b5b828203905092915050565b6000610cc482610cfb565b9050919050565b6000610cd682610cfb565b9050919050565b60008115159050919050565b6000610cf482610cb9565b9050919050565b600073ffffffffffffffffffffffffffffffffffffffff82169050919050565b6000819050919050565b6000610d3082610d37565b9050919050565b6000610d4282610cfb565b9050919050565b6000610d5482610d1b565b91507fffffffffffffffffffffffffffffffffffffffffffffffffffffffffffffffff821415610d8757610d86610d92565b5b600182019050919050565b7f4e487b7100000000000000000000000000000000000000000000000000000000600052601160045260246000fd5b7f4e487b7100000000000000000000000000000000000000000000000000000000600052601260045260246000fd5b7f796f7520646f65736e2774206861766520656e6f756768206d6f6e6579000000600082015250565b7f6e667420697320616c726561647920736f6c6400000000000000000000000000600082015250565b7f5265656e7472616e637947756172643a207265656e7472616e742063616c6c00600082015250565b610e7481610ce9565b8114610e7f57600080fd5b50565b610e8b81610d1b565b8114610e9657600080fd5b5056fea26469706673582212206cad9b753d757986a8c8dd2cf651c4c1961870bf53664f1ad9274a9b23502f2b64736f6c63430008040033",
  "linkReferences": {},
  "deployedLinkReferences": {}
}